:400000000080002011000000810A0000810A000008B5044B1A6803F53F5302331A6000F037FD00BFFA46004010B5054C237833B9044B13B10448AFF300800123237010BD2D
:400040005081FF1F0000000070150000084B10B51BB108490848AFF300800848036803B910BD074B002BFBD0BDE81040184700BF000000005481FF1F70150000C880FF1FE8
:400080000000000008B501F04FF808BD10B504210A4B187800F0C6FD084B187800F0D2FD0028F9D1054C0121207800F067FD044BD978207800F0AAFD10BD00BF09A7FF1FE8
:4000C0000CA7FF1F01EB81018A01C30803EBD203044AD35C00F0070043FA00F000F00100704700BF8881FF1F2DE9F04762B600F0C9F9002000F03AFE012000F043FE0020A8
:4001000000F058FE642000F009FE002303E0FF21A94AD1540133B3F5165FF8DB002000F025FE012000F02EFE002000F043FE00F075FE00F0BDFEA04D4FEA15494FF4804343
:400140004A460121084600F0C1FEDFF8A88288F8000000F0A7FD994C207000F0A3FD607000F0A0FDA0700123627840F6FF71207800F0B2FDADB246F24A522946207800F044
:40018000BFFD0123A27840F6FF71607800F0A4FD05F6FF77BFB246F24A523946607800F0AFFD0523227840F28251A07800F094FD05F5FF531E339EB246F24A523146A078DD
:4001C00000F09EFD217898F8000000F01FFD012198F8000000F0D2FC642000F09FFD002000F0B2FD082000F0E5FD002000F0E2FD082000F0DFFD00F0DBFE00F043FF704870
:4002000000F0D2FF00F082FF01F00AF800F08CFF4B464FF480420121084600F08DFFDFF8A88188F8000000F03DFD664C207000F039FD607000F036FDA07000F033FDE07017
:400240000223627840F6FF71207800F045FD2A4646F25D41207800F053FD0223A27840F6FF71607800F038FD3A4646F25D41607800F046FD0223E27840F27D51A07800F027
:400280002BFD324646F25D41A07800F039FD022322780521E07800F01FFD05F515523B3292B246F25D41E07800F02AFDE17898F8000000F0ABFC00F0F3FE0028FBD000F0A6
:4002C000EFFE0128FBD000F0EBFE0028FBD000F0E7FE0128FBD001213B4B187800F04EFC01F066F8C82001F02BF800F0FFFF374801F08AF801F0C4F84FF0000A57465646BC
:400300004FF0F0084FF4A07955461DE029462046FFF7D8FE012810D14C4500D2A146B44200D92646454500D2A846BD4202D84FF0010A02E02F464FF0010A013400E000241B
:40034000B4F5A07FE2D30135EF2DF8D9642000F0E5FCBAF1000F2AD009EB06035B081C4A136008EB070252081A490A608B2B03DC194800F057F908E0B42B03DD174800F04C
:4003800051F902E0164800F04DF9124B1B68632B03DC144800F046F9AEE78C2B03DD124800F040F9A8E7114800F03CF9A4E7104800F038F9A0E700BF8881FF1F8481FF1F55
:4003C000850000000CA7FF1F09A7FF1F8D0000007881FF1F7C81FF1F74150000801500008C15000098150000A4150000B4150000C415000008A7FF1F08B500F0A5FC052013
:4004000000F0D8FC072000F0D5FC08BD10B50446002000F0B7FC2046FFF7EEFF10BD00BF10B50446012000F0ADFC2046FFF7E4FF10BD00BFF8B505460F4614461E462A20BB
:40044000FFF7E4FF380AFFF7EBFFF8B2FFF7E8FF300AFFF7E5FFF0B2FFF7E2FF2B20FFF7D5FF280AFFF7DCFFE8B2FFF7D9FF200AFFF7D6FFE0B2FFF7D3FF2C20FFF7C6FF97
:40048000F8BD00BF08B5012000F064FC012000F06DFC012000F076FC072000F08BFC012000F07CFC642000F039FC012000F052FC052000F033FC002000F04CFC0F2000F0B3
:4004C0002DFC012000F046FC0F2000F027FC012000F04CFC072000F06DFC002000F046FCCB20FFF793FF3920FFF79AFF2C20FFF797FF0020FFF794FF3420FFF791FF02203B
:40050000FFF78EFFCF20FFF781FF0020FFF788FFC120FFF785FF3020FFF782FFE820FFF775FF8520FFF77CFF0020FFF779FF7820FFF776FFEA20FFF769FF0020FFF770FF0E
:400540000020FFF76DFFED20FFF760FF6420FFF767FF0320FFF764FF1220FFF761FF8120FFF75EFFF720FFF751FF2020FFF758FFC020FFF74BFF2320FFF752FFC120FFF754
:4005800045FF1020FFF74CFFC520FFF73FFF3E20FFF746FF2820FFF743FFC720FFF736FF8620FFF73DFF3620FFF730FFE820FFF737FF3A20FFF72AFF5520FFF731FFB120D6
:4005C000FFF724FF0020FFF72BFF1820FFF728FFB620FFF71BFF0820FFF722FF8220FFF71FFF2720FFF71CFF1120FFF70FFF782000F094FB2920FFF709FF2C20FFF706FF40
:400600004FF4A073F02200210846FFF713FF08BD014B1844704700BFD815000008B500F03DFF08BD0FB470B58CB0012490E0252805D0FFF7F3FF109B0133109388E05A1C3A
:4006400010925B78732B0FD1651C10AB53F8244002E0FFF7E3FF013420780028F9D1109B013310932C4673E0642B2AD1651C10AB53F824100022541C3A4BA3FB0103DB08FB
:40068000184603EB83035E008B1B0CA901EB820242F8303C014622460028ECD10AE0013C0CAB03EB840353F8300CFFF7B1FF0078FFF7B4FF002CF2D1109B013310932C4681
:4006C00046E0632B0AD1651C10AB13F82400FFF7A5FF109B013310932C4639E0782B36D1651C10AB53F82430002200E02246541C03F00F000CA901EB820141F8300C1B093B
:40070000F4D114F0010F06D00CAB03EB8404002344F8303C941C012C12D80CAB03EB8403002243F8302C01340AE0013C0CAB03EB840353F8300CFFF76BFF0078FFF76EFF1C
:40074000002CF2D1109B013310932C4600E022B1109B187800287FF46AAF0CB0BDE8704004B07047CDCCCCCCFEE700BFF0B40022174611E050F82760F3B226F0FF0608E018
:4007800001EB420511F812406D78A5550132013BDBB2002BF4D10137272FEBD9F0BC7047104B1B78DBB203F007010F4A11701B09013213700123A2F23272137002F64B12CD
:4007C0001370202209490A7010210948017004300370084B197004331A704422A3F266231A707047CF0100496E580040985A0040C85A0040D85A004038B50922314B1A8019
:400800001823314A1370032230490A8002310B7005200231088002310B703D200231088002310B7084200231088002310B704FF23B000231088002310B700221244B197048
:4008400008214FF04023197003F500731A70214B1B78DBB2204A137040F229121F4B1A8041F25122023B1A80002419250CE01C4B1B7803F0010343EA440404F003044FF4D6
:40088000F07000F025FE013D0DB1032CEFD115B90320FFF769FF134B4FF480721A8007221A70002210490A704820023108701A700222033B1A700D4A137843F03F03137053
:4008C00038BD00BF8040004082400040844000400043004008010049A146004022420040254200400440004006400040A243004008B50A46002100F032FE08BD08B500F008
:4009000023FE08BD38B572B6444C61232370FFF773FF01232370424A137843F00403137000240CE03F4D630019194A0011462A44084691882858FFF7DBFF0134E4B2082C2C
:40094000F0D900240CE03748A20011194B000344B3F84020D96B986BFFF7D0FF0134E4B2022CF0D930494FF09040FFF7FFFE40F203122E4B1A8040F2033204331A800421B6
:400980002B48FFF7B5FF04212A48FFF7B1FF2A4A137843F0020313701032137843F002031370264C237843F040032370A2F58632513A137843F0100313700822204921485B
:4009C000FFF79CFF082220492048FFF797FF08221F492048FFF792FF0A221F491F48FFF78DFF08221E491F48FFF788FF08221E491E48FFF783FF08221D491E48FFF77EFF94
:400A00001D4A137843F008031370FFF7C9FE0E2221461A48FFF772FF38BD00BF00480040E8460040EC150000A00000484A580040007600400876004003500140A043004046
:400A40000C0F0048C2510040140F0048F25100401C0F004812510040240F004820510040300F004832510040380F004852510040400F00486251004022430040B043004072
:400A800008B500F035FD03680C2B00D1FEE7FEE708B5104E104D16E029686B68AC68002204E051F8040B43F8040B0432A242F8D1E868002203E0002143F8041B04328242DF
:400AC000F9D11035013E002EE6D100F017FDFFF70BFBFEE7010000006816000008B5114A114B1A60114A136843F40073136000230AE0032B03D80E4A52F8231000E00D495D
:400B00000D4A42F8231001332F2BF2D90B4B1A780B4B1A70084A0B4B1A60FFF7F3FE00F013F808BD0004FA050CED00E014ED00E000000000810A00000080FF1FBC760040AF
:400B4000C080FF1F08ED00E00B4A7F2313708021517007E0DA0002F1804202F5F042013BDBB21370002BF5D1DB0003F1804303F5F04300221A707047CC80FF1F172815D8D4
:400B800031B103010A495A5C42F020025A5405E0030107495A5C02F0DF025A540001044A835C43F00103835400207047012070471070004017280BD80001064A835C03F0E4
:400BC000F103490001F00E011943815400207047012070471070004041F6FF73994201D14FF4005141F6FF739A4201D14FF40052172808D8C00000F1804000F5EC40818090
:400C0000C280002070470120704700BF172805D8034B03EB00104172002070470120704710700040172809D8054B03EB0010037901F007011943017100207047012070471A
:400C400010700040172806D8044B03EB0010007900F007007047FF20704700BF1070004017281BD810B4C00000F1804404F5EC44D201D2B201F07F01114321709DF80420D4
:400C80001201D2B203F00F03134363709DF8083003F00F03A3700020E07001E00120704710BC704710B500F01BFC0A4B5B78182B0BD9084A1478013B5370E30003F180434C
:400CC00003F5F0431B78137000E0FF2400F00CFC204610BDCC80FF1F10F0800F0CD111F4704F0BD1C00000F1804000F5F04001808270C3700020704701207047012070474C
:400D000010F0800F08D1C00000F1804000F5F0408180C280002070470120704710B5044605E0084B186800F0D3FBA4F50044B4F5004FF6D8034B586800FB04F000F0C8FBEB
:400D400010BD00BFD480FF1F014B1870704700BF77640040044A137803F0FD03400000F0020018431070704760510040044A137803F0FB03800000F00400184310707047BF
:400D800060510040044A137803F0F703C00000F0080018431070704760510040044A137803F0DF03400100F02000184310707047F0510040014B1870704700BF7B640040C6
:400DC00008B500F08DFB044A137843F01003137000F08AFB08BD00BF9A65004008B5044A137843F001031370FFF7EAFF08BD00BF7A650040054B1A7802F0F8021A701A7828
:400E000000F0070010431870704700BF8A65004008B50020FFF7EEFF08BD00BF08B5054B1B7823B9FFF7F4FF0122024B1A70FFF7D5FF08BD6C81FF1F024A137843F0800371
:400E40001370704779650040014B1870704700BF09650040014B1870704700BF49650040014B1870704700BF29650040014B1870704700BF3965004008B50C4A137803F019
:400E8000C00343F01B0313702032137843F0010313700920FFF7D8FF0920FFF7DBFF0320FFF7DEFF0120FFF7E1FF08BD7965004008B5054B1B7823B9FFF7DEFF0122024B86
:400EC0001A70FFF7B9FF08BD6D81FF1FF0B583B016461F460B4D00242C700194009423460A4601462046FFF7BBFE3A4631462878FFF772FE02212878FFF75CFE287803B097
:400F0000F0BD00BFE480FF1F054A137843F0080313701032137843F008031370704700BFA8430040054B1A7802F0FD021A701A7800F0020010431870704700BF2C58004003
:400F4000014B1870704700BF835B0040064B1B78C3F3810303F19243063393F83831DBB2024A1370704700BF2C5800400B46004008B5064B1A7802F0F3021A701A7800F03B
:400F80000C0010431870FFF7E1FF08BD2C58004010B50024054B1C7001331C702046FFF7E7FF2046FFF7BEFF10BD00BF2C58004008B5074B1B7823B9FFF7EAFF0122044BEC
:400FC0001A70FFF7A1FF2520FFF7BAFF08BD00BF6E81FF1F054A137843F0080313701032137843F008031370704700BFA74300400F490B7803F0FC0200F0030313430B70F0
:4010000001280AD10B4B1B78DBB20B4A13700B4B1B78DBB2013213707047094B1B78DBB2054A1370074B1B78DBB20132137070474358004013010049364600401701004901
:40104000B3010049BB01004908B50120FFF7D0FF0B4B1A7802F0DF021A701A7802F0FB021A701A7842F008021A7003F527731A7802F0E7021A701A7842F010021A7008BD75
:401080004358004008B5054B1B7823B9FFF7DCFF0122024B1A70FFF79DFF08BD6F81FF1F024B1878C0F34000704700BF3151004008B500F015FA044A137843F01003137043
:4010C00000F012FA08BD00BF9D64004008B5044A137843F001031370FFF7EAFF08BD00BF7D640040054B1A7802F0F8021A701A7800F0070010431870704700BF8D640040F8
:4011000008B50220FFF7EEFF08BD00BF08B5054B1B7823B9FFF7F4FF0122024B1A70FFF7D5FF08BD7081FF1F024B187800F00700704700BF6D640040F0B583B016461F4678
:401140000B4C012525700023019300930A4601462846FFF785FD3A4631462078FFF73CFD02212078FFF726FD207803B0F0BD00BFE580FF1F014B1B681864704708ED00E0F3
:401180004001C0B2014B1870704700BF00E400E00122014B1A60704700E100E00122014B1A60704780E100E010B50446FFF7F6FF2046FFF7DFFF0720FFF7E2FFFFF7E8FF1D
:4011C00010BD00BF08B500F08BF9044A137843F01003137000F088F908BD00BF9364004008B5044A137843F001031370FFF7EAFF08BD00BF7C640040054B1A7802F0F802C3
:401200001A701A7800F0070010431870704700BF8364004008B50220FFF7EEFF08BD00BF08B5054B1B7823B9FFF7F4FF0122024B1A70FFF7D5FF08BD7181FF1F054A137805
:4012400043F0020313701032137843F002031370704700BFA74300400F490B7803F0FC0200F0030313430B7001280AD10B4B1B78DBB20B4A13700B4B1B78DBB2013213707A
:401280007047094B1B78DBB2054A1370074B1B78DBB201321370704741580040110100493246004015010049AF010049B701004908B50120FFF7D0FF0B4B1A7842F020022E
:4012C0001A701A7802F0FB021A701A7842F008021A7003F28E231A7802F0E7021A701A7842F010021A7008BD4158004008B5054B1B7823B9FFF7DCFF0122024B1A70FFF729
:401300009DFF08BD7281FF1F054A137843F0020313701032137843F002031370704700BFA8430040054B1A7802F0FD021A701A7800F0020010431870704700BF245800408F
:40134000014B1870704700BF815B0040064B1B78C3F3810303F19243063393F83031DBB2024A1370704700BF245800400946004008B5064B1A7802F0F3021A701A7800F04B
:401380000C0010431870FFF7E1FF08BD2458004010B50024054B1C7001331C702046FFF7E7FF2046FFF7BEFF10BD00BF2458004008B5074B1B7823B9FFF7EAFF0122044BF8
:4013C0001A70FFF7A1FF7D20FFF7BAFF08BD00BF7381FF1F014B1B685864704708ED00E04001C0B2014B1870704700BF01E400E00222014B1A60704700E100E00222014B40
:401400001A60704780E100E010B50446FFF7F6FF2046FFF7DFFF0720FFF7E2FFFFF7E8FF10BD00BF7222074B1A702022FE331A7006225B3B1A70472210331A700022493316
:401440001A7070478864004010B500F049F804460A4A137843F020031370FE32137843F010031370023A137843F01003137000F021F8204600F038F810BD00BF986400409C
:4014800008B5054B1B7823B9FFF7CCFF0122024B1A70FFF7D9FF08BD7481FF1F034B1B7813F0040FFAD1024B187070476465004047650040054A137843F010031370103227
:4014C000137843F010031370704700BFA24300400230800803D000BF01380046FCD17047EFF3108072B6704780F31088704700BF014B1868704700BF4881FF1F0E4B70B535
:401500001E460E4C0025E41AA410A54204D056F8253098470135F8E700F094F8084B094C1E46E41AA4100025A54204D056F8253098470135F8E770BD50160000501600001A
:40154000501600005816000010B5431E0A44914204D011F8014B03F8014FF8E710BD03460244934202D003F8011BFAE770470000000000004D6F7665204C6566742E0000DB
:401580004D6F76652052696768742E0043656E746572656420582E00094D6F76652055702E0D0A00094D6F766520446F776E2E0D0A0000000943656E746572656420592E37
:4015C0000D0A00004E6F7468696E6720466F756E642E0D0A0000000030313233343536373839616263646566000000000051004010004051004010000000014000088008E7
:4016000001400004000D0140000300140140000800400140000A004C01400002105001401000000000080140FC0D00488000800C01407C0E0048800000500140FC0E0048D0
:4016400010004300F8B500BFF8BC08BC9E4670474D000000DD0A0000F8B500BFF8BC08BC9E4670472900000078160000C880FF1F88000000C0250000000000007F8000005C
:401680000300000000001E783CF000003E000000606AAA03FFFF0000000000000000000000000000000000000000000000000000000000000000000042160000000000005A
:4016C0000000000000000000000000000000000000000000000000000000000000000000000000000000000000000000000000000000000000000000E880FF1F0000000064
:4017000000000000000000000000000000000000000000000000000000000000000000000000000000000000000000000000000000000000000000000000000000000000A9
:401740000000000000000000000000000000000000000000000000000000000000000000000000000000000000000000000000000000000000000000000000000000000069
:401780000000000000000000000000000000000000000000000000000000000000000000000000000000000000000000000000000000000000000000000000000000000029
:4017C00000000000000000000000000000000000000000000000000000000000000000000000000000000000000000000000000000000000000000000000000000000000E9
:020000040003F7
:0200000480007A
:40000000085200400264004003650040040001400301014049020140390301404F040140420501404D0601404D070140230801404A0901406C0A0140480B0140110C014057
:40004000470D0140430E01402D0F0140421401405315014049160140551701405218014042190140661A0140591B0140084001400641014006420140074301400E450140D9
:400080000F4601400F47014008480140034901400A4C0140194D01400650014002510140103A116C18022846291C60206130781088728D02840F86388A0139023F01590422
:4000C0005F0121018602E20202810302060207010A410D080E510F061404165919041A611B0A205D210122A2230E2408265530C0320C33033430350C36033AA23B0858046A
:4001000059045C935F018101821883308614875089028A198B508D048E3A8F50925A961A9A109B109D289F54A025A24AA65AA708A902AB50AF50B060B104B203B303B40CF4
:40014000B518B610B760BA2ABBA0BE40BF04D804D904DB04DC99DD20DF0100410328051006A00702081009040B440E241040122014401708184219041A021B2D1E241F41A3
:4001800020212120234424282504262028102B052C4030403320362038293B403D083F4258016004610863018501862087408A018D248F209102A202C0FFC26EC43CCA8E26
:4001C000CC2CCEDFD601D80EE402E805010103080411062E071408C009010A100B120E220F541004122A1408162617341880192A1A221B541F542354244026212B14300C34
:400200003118323033603403350636C0370139803A283B2A3E403F40580459045C885F018202840186028A128E0A9001920493129501960A970C9A0A9B0C9C40A00AA10981
:40024000A214A310A60AA860AC20B006B201B306B418B501B660B718B808BA22BB80BE44BF04D804D904DC33DF0100400328051006A0070209040A880E640F021104144406
:400280001540170819801A801B181D141E4921512204271A2A112B082C402E802F01324433203610370A38403926784079047B10802488408B808D048E01920493029404FA
:4002C0009A209C419D109E809F0AA212A508A841B010B401B701C0F7C2FEC4F4CA85CCEECE0FDE08E001E204E801EC04EE01000304030A100C1016011803260428022E08F6
:40030000341F38203B80580459045C495F01830886028B028C088E108F2090089220931094089620981099049A209F21A201A402A704AA04B030B101B206B330B408B50CCE
:40034000B603B706B820BA02BE54BF54C012C104C205C406C60EC7C0C824C9FFCAFFCBFFCC62CDA0CEF0CF41D00CD804D904DA04DB04DC48DD04DF01E640E702E910EA30C2
:40038000EB10ED10EE10EF1200440594074009340A800D200E201098158016101710184019101B881D201F2020082201231227012A0430113140388039113D403F804110BF
:4003C000420243014A014B105201534068226911709872807840820283018404850287408A098D208E019180928593029440954099849A109B109C44A206A302A460A504D4
:40040000A7A1B001B508B702C0F5C26EC4EECA02CC0DCE0DD00DD20CDE08E00AE201E40AE6448B0291049F02AB05B101B302B504B908BF14C105C401C9FFCAFFCBFFCCEFE8
:40044000CD55CE72CF48D01CD908DA04DC10DD02DF01E108E308E508E708E850E90AEA40EBA8ECC0EE40EFA80440050507080C410E281480160217141D051E481F282024DA
:40048000220124082508260127012B042C402E402F28328134013610372838203C403D803E2A4180458048024C0256045E026D506E04762A77147B02810883208501868024
:4004C00088808C04910498029C209D809E05A002A208A584A680AD02B008B450B501C0F0C2F0C4F0CAF4CCE9CEF4D018D218D680DE08E022E210E482EC08EE700001040DE6
:400500000E061609170218202210261029022C102E202F01303033033403360C38023E014105440149FF4AFF4BFF4CEF4D554E724F48501C580459045A045C955D025F0195
:4005400061086308650867086850690A6A406BA86CC06E406FA881098210830686048A028E029108920193069511960899029A089E02A003A404A608A820AE20B003B110BE
:40058000B20CB303B430B504B708B988BA08BB20BE10BF01C105C401C5FEC60DC70CC817C9FFCAFFCBFFCCEACD55CEF2CF48D01CD804D904DA04DB04DC19DD02DF01E10823
:4005C000E308E508E708E850E90AEA40EBA8ECC0EE40EFA800040382044005040680070409180E6A1148128014A016011710180419221B801C081D041E40210824202501D6
:400600002628270229202B023108362837023E014180458048024C62540857406D646E016F10828083C084049040964098829B049C209D849E04A002A215A302A420A881F8
:40064000AA80AF10B101B420B604C0FDC2F6C4FDCA0CCCE2CE80D018D218E080E426E840EC80EE1202010A061E022A013002340136043A823B303E105201580B590B5B048C
:400680005C995D205F010094028006800704080109800E02122813011608181419401AA01B011C401D101E0221402226270428012940321639803B014240480149024B208B
:4006C0005108525059025B1060806108625068016C027A807B017E4082408310840289018E0B93019402958396289C209DD49E07A040A180A298A302A602AB82C05FC28944
:40070000C44ECC07CE09D001D20CD605D80FDE89E070E44001080304060207030B0B0E550F0512251305165517051A551B041E091F032255232126952A552B112CAA2E55CB
:400740002F30303031013203330234C0350C360C373039083AAA3B203F455608580B590B5B045C995D905F018008841C88088E029080924094449683981C9C18A210A6C0DB
:40078000AA20AE01B2C0B43CB603B820BE40D608D804DB0BDC09DD90DF0102120402051406020AA90D010E2610011114124014201501160518041A811B441E262080219035
:4007C000220829402A102B443256380439B43A403B015B805D806280640167017A807E808604C0F5C2FFC4FFCA0DCC0FCE0FD618D818DE81021004670608070508030A08B4
:400800000B050E031040122413191502161019041A011B081E021F05221023012410270528212A442B152C102F013003310C320C3302346035103610370139203A083B02DE
:400840003E413F545401580459045B045C885D405F31851097059B069E01A308A505A71AAB05AE01B001B10CB310B503BB22BE01D804D904DC80DF310002020203280A819C
:400880000B140E02102512481302160119411B181F0222452304240825042620274029182B412C802D902F2230883201336035083620380839103B203D084E084F205960F1
:4008C0005A085B017A807E80840985208703880189088B108C248D409201932094049580960299189A419C049D81A008A283A361A481A50CA620A840AA02AD50AF08B041D9
:40090000B280B524C00FC28FC48FCAEFCC6FCE46D60FDE81E402E608EA0BEC08EE04050214011503240228012D03300231013401350239023E013F115418580459045B046D
:400940005C085D405F3182028440869587028B018D10922193049480951096559A199E11A215A310A502A615A8D5AA2AAF08B030B10AB2C0B303B40CB510B603B706BAA293
:40098000BF45C015C103C50BC60CC70EC815C9FFCAFFCBFFCEF0CF44D00CD608D804D928DA04DB04DC18DD94DF31E6C0EA40EB02010803800A4A0B300F1010801130122057
:4009C0001510170819181A481BC11C801F10212222482610274028102A8A2F01300231043604382439403A043E0441484811500852405B805F016140658066107A807B02A3
:400A00007E80861088108A088D408E40902092059303948495209A819B809C559D419E049F40A002A110A207A322A440A506A618A741A901AB08AF80B301B702C00CC22F81
:400A4000C46ECA1BCC43CE4ED00AD208D688D838DE89E282E804EA02EC0103200409055F06100810095F0C300E0C1320141C150A1622171119011A031B061C402014211403
:400A80002309242C26112C802D40312032603307341F35183680374038083E403F01580459045C445F01820584088E1092039A0A9C01A008A402A810B010B208B403B60451
:400AC000B902BE01C060C102C540C621C705C81FC9FFCAFFCBFFCDA0CF04D018D280D829D919DA29DB29DC11DD11DF01E040E2C0E440E540E6C0E8C0EAC0ECC0EEC0018A88
:400B00000480050406040A490D200E100F0210A012081410164219101A091B061DA422022542272C2C402D4037253D113E04432049184B0250A4532072407A08830485029E
:400B400089068A408F01900491559204942098029B019C619E019F28A010A208A584A706A980B140C0EDC2EBC4BECA90CCE0CEE0D004D204DE04E010E2E0E484E810EA02CB
:400B8000EC2100050202040C06520C0E0E9013011422160C1C021EFC2C012EFA300731013218348036E03AAA3B0240204104440145CD460E47BF483749FF4AFF4BFF4CEA82
:400BC0004D554EF04F08501C52015401581959195A085B085C115D115F016108630865086708685069096A406BA86CC06E406FA88503861C870488618A168D038F04945CEE
:400C000096039708986199039A0E9B0C9E239F05A90AAA08AB04B060B20FB30FB41AB802BA28BB08BE01C004C704C9FFCA07CBFFCC40CD20CEF0CF05D008D804D904DA04B4
:400C4000DC44DD04DF01E040E1A8E240E32001820320042005040A220C100E140F021202160419821A201B201C201D021E142201242027202E1032023504368037203E0404
:400C80003F4040064301450249014B044E804F0251085241560459015A406108624063046B017A087B02800481028240874388108A048C408E018F2090049480961098026A
:400CC00099049C109D029E05A20AA302A701A910AB04AC41AD60B030B202B320B414B584C06DC2E5C441CA20CC71CE50D08DD609D80EDE0CE008E404E6F0EA90EC40EE2022
:400D000010803240358038083D10C410CC30CE609409951096809D80A881E8A0940195109D80A804AA40EE8086048D808E20940195109D80E41002101104540858105A0417
:400D40005E80610464046540C008C408D403D607D8035780811084108808894096049A109C149D44A408A640AD04D402E001E404010286448804960499109A109C049D046D
:400D8000A180A640AF80B580C008E401E8082204240189109401951096089A20C86056209A20D44080408C0498809912A180A904AE10B480E008E8085180570659115E01A7
:400DC000604070047C80830486018D01904898809910A180A302B102B302D407D607D802DC01DE04E402EA01EC01101211011A121B011C121D01000F100A00004F40900061
:400E00004C20A30001600000FF7F00000000B31303010000F3030C004200000000024000041F00600C780007086800178C087C030F70000400802A00000000010005000099
:400E40000100000B10FFFFFFEF5570481C0000000000021304040404444200010008000800080008500A40A8C00040A800000000000000000000000000000000004880279C
:400E8000700002000000850000000550100209350000003800010026600000000A0085000000400000002000000000008003700C03100C600020A0880000051000054000C8
:400EC00006C0DE0F1EFFFFFFEA55F0081C000100020004000B0B0808999900010008000800080008500940A8C00040A8000000000000000000000000000000003E01000029
:400F0000000000000C0118013601040100303000300000000030300010000000000B0B0000000000020001FEFE00FE000000000000FEFE00FE000100007F7F007F000000C4
:400F4000000E0E0000000000000000000000000000000000000000000000000000000000000000000000000000000000000000000000000000000000000000000000000055
:400F80000000000000000000000000000000000000000000000000000000000000000000000000000000000000000000000000000000000000000000000000000000000031
:400FC00000000000000000000000000000000000000000000000000000000000000000000000000000000000000000000000000000000000000000000000000000000000F1
:4010000000000000000000000000000000000000000000000000000000000000000000000000000000000000000000000000000000000000000000000000000000000000B0
:401040000000000000000000000000000000000000000000000000000000000000000000000000000000000000000000000000000000000000000000000000000000000070
:0200000490006A
:0400000000004005B7
:0200000490105A
:04000000BC90ACAF55
:0200000490303A
:020000004418A2
:0200000490402A
:4000000000000000000000000000000000000000000000000000000000000000000000000000000000000000000000000000000000000000000000000000000000000000C0
:400040000000000000000000000000000000000000000000000000000000000000000000000000000000000000000000000000000000000000000000000000000000000080
:400080000000000000000000000000000000000000000000000000000000000000000000000000000000000000000000000000000000000000000000000000000000000040
:4000C0000000000000000000000000000000000000000000000000000000000000000000000000000000000000000000000000000000000000000000000000000000000000
:0200000490501A
:0C00000000012E16006900012E2344812F
:00000001FF